:02000000400AB4
:1000800040000200040C2600EB0C060067004A0A40
:1000900046014B0A0602030E0701E201650A780ACF
:1000A000650A4A0A780A780A650A4A0A650A780AD5
:1000B000650A5E0A780A780A650A5E0A67006900BE
:1000C00069026A0C8B090902480A86054604690020
:1000D0006902350C47058B098604460566076705E6
:1000E000320C8B090902010D000000000000480AD3
:1000F0008605460469006902A30C47048B0986043F
:10010000460566076705320C8B090902020D0000DF
:1001100000000000480A280006026901E8028C0A73
:020120000008D5
:021FFE00E30FEF
:00000001FF
