:10000000400A500049004B002000560031002E00ED
:04001000310031008A
:10008000E3064C0A40000200040C2600EB0C0600BC
:1000900067004C0A46014D0A0602030E0701E20101
:1000A000670A7A0A670A8D0A7A0A7A0A670A8D0A43
:1000B000670A7A0A670A600A7A0A7A0A670A600A8D
:1000C000670069006902760C8E0909024A0A8605F2
:1000D0004604690069023B0C47058E098604460503
:1000E00066076705380C8E090902010D0000000043
:1000F00000004A0A8605460469006902B50C4704F7
:100100008E098604460566076705380C8E090902C4
:10011000020D0000000000004A0A03002800060249
:080120006901E8028F0A0008E2
:080400000000000000000100F3
:021FFE00E30FEF
:00000001FF
