:10000000400A500049004B002000560031002E00ED
:04001000310030008B
:1000800040000200040C2600EB0C060067004A0A40
:1000900046014B0A0602030E0701E201650A780ACF
:1000A000650A4A0A780A780A650A4A0A650A780AD5
:1000B000650A5E0A780A780A650A5E0A67006900BE
:1000C0006902760C8B090902480A86054604690014
:1000D00069023B0C47058B098604460566076705E0
:1000E000380C8B090902010D000000000000480ACD
:1000F0008605460469006902B50C47048B0986042D
:10010000460566076705380C8B090902020D0000D9
:1001100000000000480A280006026901E8028C0A73
:020120000008D5
:080400000000000000000100F3
:021FFE00E30FEF
:00000001FF
