:02000000400AB4
:10008000000C0200400026006700040C2A00EF0C60
:100090003F0E06005A0A4607670569006902290CE7
:1000A000280006026901E802510A0902030E07014D
:1000B000CA01E2010602030E0701E201720A780A90
:1000C000720A5A0A780A780A720A5A0A720A780A6E
:1000D000720A6E0A780A780A720A6E0A6700470C7A
:1000E0007E094B0A8605470C47057E0986044B0AA4
:1000F0008605DA0C47047E0986044B0A2800E802CC
:040100007F0A00086A
:021FFE00E30FEF
:00000001FF
