:020000040000FA
:10000000400A500049004B002000560031002E00ED
:040010003100350086
:10008000F70C67013F0C680140002600EF0C0600EA
:1000900040000200030C6A004601030E0A01E2015F
:1000A000670A770A670A0300770A770A670A030074
:1000B000670A770A670A600A770A770A670A600A96
:1000C0006A006C006C02760C86090C024C0A8605EC
:1000D0006C006C023B0C4A0586090000860466062B
:1000E0006A05390C86090C02010D00004C0A8605D0
:1000F0006C006C02B50C4A04860900008604660692
:100100006A05390C86090C02020D4C0A2B00060206
:080110006C01EB02870A0008F4
:080800000000000000000100EF
:021FFE00C30F0F
:00000001FF
